:1000000000800020BD0100006D3700003137000086
:100010003137000031370000313700003137000040
:100020003137000031370000313700006D370000F4
:100030006D370000313700006D37000021370000B8
:100040006D3700006D3700006D3700006D37000020
:100050006D3700006D3700006D3700006D37000010
:100060006D3700006D3700006D3700006D37000000
:100070006D3700006D3700006D3700006D370000F0
:100080006D3700006D3700006D3700006D370000E0
:100090006D3700006D3700006D3700006D370000D0
:1000A000BD1E00006D3700006D3700006D37000089
:1000B0006D3700006D3700006D3700006D370000B0
:1000C0006D3700006D3700006D3700006D370000A0
:1000D0006D3700006D3700006D3700006D37000090
:1000E0006D3700006D3700006D3700006D37000080
:1000F0006D370000515300006D3700004958000073
:100100006D370000655C00006D3700006D37000042
:100110006D3700006D3700006D3700006D3700004F
:100120006D370000390B00006D3700006D3700009F
:100130006D3700006D3700006D3700006D3700002F
:100140006D3700006D3700006D3700006D3700001F
:100150003D4A0000554A00006D4A0000854A0000F3
:100160006D3700000D3F00006D3700006D37000057
:100170006D3700006D3700006D3700006D370000EF
:100180006D3700006D3700006D3700006D370000DF
:100190006D3700006D3700006D3700006D370000CF
:1001A0006D3700006D3700006D3700006D370000BF
:1001B0006D3700006D3700008D490000574B4CF241
:1001C000205210B51A804DF628121A8000BF00BFC9
:1001D00003F0D0FA524B4FF010621A60514A9A6005
:1001E000514ADA60A3F53043203B1A6812F480725A
:1001F00004D14E490A604FF4A8521A604C4B1A7849
:10020000110703D51A7842F008021A70494B4A4C7C
:100210004A482A221A704A4A00239918A14203D256
:10022000195899500433F8E7464B474900228B424E
:1002300002D243F8042BFAE74448454900235A58B0
:100240001A500433B3F5DE7FF9D1424B424A802184
:1002500003F8011B9342FBD1404B3C4A1A60404BD0
:100260000A221A70A3F5805324225A70A0221A7011
:100270009A799207FCD59A79D406FCD4394A9379B5
:1002800003F00C03082B374BF9D103221A714022DB
:100290005A719A799006FCD5324A9179314B4906C8
:1002A000FBD5314A314911600221516020221A7078
:1002B0009A7902F00C020C2AFAD12D4B2D4A1A60C1
:1002C0002D4B2E4A1A6000225A60072243F8042C54
:1002D0002B4AC3F80C2D62B603F0DAFC134B1B68F3
:1002E000DA0705D5274803F047FC274B274A1A6051
:1002F000274B1B785B0609D5234C244A236893427D
:1003000004D1204803F038FC0023236006F056FE99
:1003100003F036FA04F090FCFEE700BF0E20054023
:1003200030800440823F04000100002B14D00340C1
:1003300002D0074000E007405C90FF1F947D000062
:100340006087FF1F5C90FF1F009DFF1F0082FF1F43
:100350000000000000E400E05FE400E008ED00E0E1
:100360000050064000400640448004400000030165
:1003700004800440C010050014E000E0FF76010096
:1003800000002020580C1C561CE00340A5C3945AC2
:1003900000F00740FFFFFFFFFFFFFFFFFFFFFFFF32
:1003A000FFFFFFFFFFFFFFFFFFFFFFFFFFFFFFFF5D
:1003B000FFFFFFFFFFFFFFFFFFFFFFFFFFFFFFFF4D
:1003C000FFFFFFFFFFFFFFFFFFFFFFFFFFFFFFFF3D
:1003D000FFFFFFFFFFFFFFFFFFFFFFFFFFFFFFFF2D
:1003E000FFFFFFFFFFFFFFFFFFFFFFFFFFFFFFFF1D
:1003F000FFFFFFFFFFFFFFFFFFFFFFFFFFFFFFFF0D
:10040000FFFFFFFFFFFFFFFFFFFFFFFFFEFFFFFFFD
:1004100010B5054C237833B9044B13B10448AFF33E
:1004200000800123237010BD5C90FF1F00000000BE
:10043000947D000008B5064B1BB106480649AFF392
:1004400000800648036813B1054B03B1984708BD07
:1004500000000000947D00006090FF1F5C90FF1F73
:10046000000000000020704710B582B00A46036803
:100470001C6800238DF800308DF801308DF80230B3
:100480008DF804308DF805308DF80630694601ABE3
:10049000A04702B010BD00BF10B5044602200121E4
:1004A00003F09EFB0520012103F09AFBA06910B127
:1004B00003685B68984710BD08B503F0B3FB064BB3
:1004C0001860064B1B78064A1068064AD15C002269
:1004D00002F048FB08BD00BF9095FF1FA090FF1FD2
:1004E0006C95FF1F6487FF1F10B5044604F09AFB4C
:1004F000204610BD2DE9F843484B1B6813F0010F4F
:1005000026D1464803F046F910B3454B0021596007
:10051000FF221A735A739A73DA731A745A74012287
:100520009A74596199603F4B1B6813B93C4A3D4B23
:100530001A603D4B1B680BB1394A9A60384B3A4AF6
:1005400013603A4A1A6000229A61344803F028F98D
:10055000334837494FF4CC72002301F0CFFA354BC2
:100560001846197801F05EFA4FF47A7003F07CFBBC
:10057000314C23685B682046304905229847204665
:1005800004F07EFB2E4B5C1E2E4D03F103094FF051
:100590000008302714F8010F414603F021FB3846CC
:1005A00004F052FB064602F04FFF45F8046F4C453D
:1005B000F0D1254C23681868012102F039FB23682B
:1005C0001868082102F05EFB23681868082102F011
:1005D00019FC23681868012102F074FC236818686C
:1005E000002102F05BFD1948194942F6DF6204F070
:1005F00001FB2068002102F0ADFA03F013FB154B5C
:10060000186003F00FFB144B1860144B1968144A60
:1006100011601A68134B1A60BDE8F8839890FF1FA9
:100620007C90FF1F1496FF1F2496FF1FC0790000C7
:10063000A490FF1F0C96FF1F009BFF1FD87900009E
:100640006487FF1FF895FF1F6C95FF1F7495FF1FB0
:10065000B90400008C95FF1F8895FF1FE499FF1FC8
:100660009895FF1F7095FF1F2DE9F84F224D00242C
:10067000DFF894B0DFF894A003F0D4FA1F4B1B68A6
:10068000C01A06F04DFA1E4906F054FC28B10023AA
:10069000EB6003F0C7FA194B18601A4E4FF00009CF
:1006A0001EE0305902F00AFF0746DBF80000494619
:1006B00002F048FA8046384606F036FA514606F00F
:1006C00087FA0746404606F02BFA0146384606F000
:1006D00033FB8046E96806F037FC08B1C5F80C80AA
:1006E000305902F0C5FE0028DBD004341835102C38
:1006F000C2D1BDE8F88F00BF9C95FF1F8C95FF1FEE
:1007000000409C46FC95FF1F6C95FF1F9A99993FEE
:100710002DE9F04782B01D4C0025AA461C4FDFF89A
:1007200074904FF00608E068A16806F003FC28B357
:10073000237C1BBB3B685B6838464946424698476A
:10074000384604F09DFA3846294604F0E5FA384662
:1007500004F096FAE06805F01FFE02460B460A21F7
:100760000091384604F0E4FA384604F089FA4FF074
:10077000010A84F810A003F055FA606101351834BD
:10078000042DD0D1504602B0BDE8F0879C95FF1FE4
:10079000009BFF1FE07900002DE9F84F03F042FABB
:1007A000344B1B68C01A06F0BBF9334906F0AEFBA8
:1007B00000285DD103F036FA2E4B18602F4B03F161
:1007C000100503F1700B4FF07C5A2D4E4FF00009CD
:1007D0002C462B78C3B103F025FA6B68C01A06F0DB
:1007E0009FF9284906F0A6FB88B1274F3B685B6854
:1007F0003846264907229847384604F041FA002334
:100800002B70DFF88C8004E0DFF8888001E0DFF8EF
:10081000808054F8100C54F80C1C06F0D1F80746F0
:100820004046514606F0D4F9314606F0D1F931463A
:1008300006F0CEF90146384606F0C2F8074644F8FD
:10084000100C4046314606F0C3F9014654F80C0C32
:1008500006F0B6F844F80C0C3846494606F060FB42
:1008600018B144F8109C44F80C9C18355D45AFD184
:10087000BDE8F88F8895FF1F00409C469C95FF1FA0
:100880000AD7A33C001BB748009BFF1FE879000074
:10089000C8CCCC3CCDCC4CBE10B4592303FB00F3E8
:1008A000582928BF582110F0010F094C19BF3433C3
:1008B000C9188D33C1EB030101EB410160181378B6
:1008C000635453784370937883705DF8044B70479A
:1008D000A490FF1F30B583B005460C4608460E496C
:1008E00006F076F906F03AFB8DF80400FF238DF848
:1008F00005308DF8063001A8694601F025F920463B
:10090000064906F065F906F029FBC1B228466A4699
:10091000FFF7C2FF03B030BD00007F430000B242CA
:1009200070B500252C46054E20467159FFF7D2FFC1
:1009300001341835042CF7D170BD00BF9C95FF1F02
:100940002DE9F04182B003F033FF00B303F0E4FE81
:100950006B4C04F160076B4D0A26E06805F01CFD46
:1009600002460B460096284604F0E2F9284604F0B9
:1009700087F91834BC42F0D1624C2046624B1968AA
:100980000A22002304F08CF9204604F079F9FFF7DD
:100990006BFE5E4B1B78042B00F29680DFE803F0C1
:1009A00003455B757A0003F03DF9594B1860594BCC
:1009B0001A68594B1B68D31AB3F57A7FC0F084804C
:1009C000504C23685B68204654490A2298472046C9
:1009D00004F056F94A4C04F16008514F494D0A267B
:1009E000E068394606F0F4F8A06005F0D5FC024650
:1009F0000B460096284604F09BF9284604F040F97F
:100A000018344445ECD10122404B1A70414B1A680E
:100A1000414B1A603B4C23685B68204641490422E5
:100A20009847204604F02CF967E0FFF771FE002894
:100A30004AD00222354B1A70364B1A68364B1A6070
:100A4000304C23685B68204637490522984720468A
:100A500004F016F938E02F4B1A682F4B1B68D31A95
:100A6000B3F5FA6F30D30322284B1A70294B1A685A
:100A7000294B1A60234C23685B6820462B490422CB
:100A80009847204604F0FCF81EE0FFF741FEFFF710
:100A900083FE19E01F4B1A681F4B1B68D21A41F2E4
:100AA00087339A4210D90122184B1A70194B1A68D1
:100AB000194B1A60134C23685B68204619490422BD
:100AC0009847204604F0DCF8124B1A68184B1B6854
:100AD000D31A1D2B11D90F4B1A68154B1A601548E4
:100AE00000F06CFF094B1B78032B01D1FFF718FFB7
:100AF000104B1846197800F095FF02B0BDE8F08160
:100B00009C95FF1F009BFF1F9C90FF1F9495FF1F4C
:100B10008C95FF1FE499FF1F7095FF1FF07900006F
:100B200000002040FC790000047A00000C7A0000EC
:100B30009895FF1F0C96FF1F38B5104C2278104B6C
:100B400053F822500F4B18684FF0FF3102F052F863
:100B50000146284602F09AFC03F064F80A4B1B6831
:100B6000C01A0A4A106023780133DBB2032B01D884
:100B7000237038BD0022014B1A7038BDA090FF1FB2
:100B8000FC95FF1F6C95FF1F9095FF1F9C90FF1F0A
:100B900010F0800F09D0574A01231360802313609F
:100BA00000BF0432136000BF08E0534B01221A60FB
:100BB000802250490A6000BF1A6000BF10F0400F49
:100BC00009D04C4A012313608023136000BF043214
:100BD000136000BF08E0484B01221A60802245499B
:100BE0000A6000BF1A6000BF10F0200F09D0414A10
:100BF000012313608023136000BF0432136000BF21
:100C000008E03D4B01221A6080223A490A6000BF89
:100C10001A6000BF10F0100F09D0364A012313608C
:100C20008023136000BF0432136000BF08E0324B22
:100C300001221A6080222F490A6000BF1A6000BF9B
:100C400010F0080F09D02B4A012313608023136092
:100C500000BF0432136000BF08E0274B01221A6076
:100C6000802224490A6000BF1A6000BF10F0040F00
:100C700009D0204A012313608023136000BF04328F
:100C8000136000BF08E01C4B01221A608022194942
:100C90000A6000BF1A6000BF10F0020F09D0154AA9
:100CA000012313608023136000BF0432136000BF70
:100CB00008E0114B01221A6080220E490A6000BF31
:100CC0001A6000BF10F0010F09D00A4A0123136017
:100CD0008023136000BF0432136000BF7047064BCF
:100CE00001221A60802203490A6000BF1A6000BF17
:100CF000704700BFC4F00F40C8F00F402DE9F04F1F
:100D000087B0064688469146827C19788DF8121085
:100D100059788DF813109B788DF81430012A34D14E
:100D20006D4A1378013303F00703137003F00102D7
:100D3000D20113F0020F1CBF42F04002D2B213F0F6
:100D4000040F18BF42F0200210325FFA82FE0DF14C
:100D500012030DF1150400204FF4807713F8012BD6
:100D6000002A00F0C48297FBF2F2D2B2511CC9B241
:100D700003F8041C01FB0EF52D1203F8075C09B102
:100D800003F8042CA342E9D10CE000238DF81130C4
:100D90008DF810308DF80F308DF80E308DF80D3045
:100DA0008DF80C30B06910B103681B6898470020BB
:100DB000FFF7EEFE494B01201860494980220A6086
:100DC00000BF1A6000BF18600A6000BF1A6000BF51
:100DD00018600A6000BF1A6000BF18600A6000BF98
:100DE0001A6000BF18600A6000BF1A6000BF186078
:100DF0000A6000BF1A6000BF18600A6000BF1A6076
:100E000000BF18600A6000BF1A6000BF18600A6067
:100E100000BF1A6000BF18600A6000BF1A6000BF00
:100E200018600A6000BF1A6000BF18600A6000BF47
:100E30001A6000BF18600A6000BF1A6000BF186027
:100E40000A6000BF1A6000BF18600A6000BF1A6025
:100E500000BF18600A6000BF1A6000BF18600A6017
:100E600000BF1A6000BF18600A6000BF1A6000BFB0
:100E700018600A6000BF1A6000BF18600A6000BFF7
:100E80001A6000BF18600A6000BF1A6000BF1860D7
:100E90000A6000BF1A6000BF18600A6000BF1A60D5
:100EA00000BF18600A6000BF1A6000BFB9F1000FF0
:100EB00040F3678109EB490CC4440021084C074604
:100EC0001346064D98F8022062B19DF80EA082FAF2
:100ED0005AF25FFA82FA06E07890FF1FC8F00F40DE
:100EE000C4F00F408A469DF814B00BFB0AFACAF30F
:100EF000072A4AF47F4A2760236000BF2B6000BFA7
:100F00002760236000BF2B6000BF2760236000BF05
:100F10002B6000BF2760236000BF2B6000BF2760ED
:100F2000236000BF2B6000BF2760236000BF2B60E1
:100F300000BF2760236000BF2B6000BF27602360D5
:100F400000BF2B6000BF5FFA8AF21AF0800F14BF57
:100F500020602860236000BF2B6000BF12F0400FAC
:100F600014BF20602860236000BF2B6000BF12F018
:100F7000200F14BF20602860236000BF2B6000BFDB
:100F800012F0100F14BF20602860236000BF2B6098
:100F900000BF12F0080F14BF20602860236000BF5C
:100FA0002B6000BF12F0040F14BF20602860236084
:100FB00000BF2B6000BF12F0020F14BF206028603A
:100FC000236000BF2B6000BF12F0010F14BF206030
:100FD0002860236000BF2B6000BF98F8012032B169
:100FE0009DF80DA082FA5AF25FFA82FB00E08B4670
:100FF0009DF813A00AFB0BFB0BF47F4B98F8002025
:101000002AB19DF80CA082FA5AF2D2B200E00A4648
:101010009DF812A00AFB02FA4BEA1A2ACAF3072B20
:101020005FFA8BF21BF0800F14BF206028602360F2
:1010300000BF2B6000BF12F0400F14BF206028607B
:10104000236000BF2B6000BF12F0200F14BF206090
:101050002860236000BF2B6000BF12F0100F14BF88
:1010600020602860236000BF2B6000BF12F0080FD3
:1010700014BF20602860236000BF2B6000BF12F007
:10108000040F14BF20602860236000BF2B6000BFE6
:1010900012F0020F14BF20602860236000BF2B6095
:1010A00000BF12F0010F14BF20602860236000BF52
:1010B0002B6000BF5FFA8AF21AF0800F14BF206025
:1010C0002860236000BF2B6000BF12F0400F14BFE8
:1010D00020602860236000BF2B6000BF12F0200F4B
:1010E00014BF20602860236000BF2B6000BF12F097
:1010F000100F14BF20602860236000BF2B6000BF6A
:1011000012F0080F14BF20602860236000BF2B601E
:1011100000BF12F0040F14BF20602860236000BFDE
:101120002B6000BF12F0020F14BF20602860236004
:1011300000BF2B6000BF12F0010F14BF20602860B9
:10114000236000BF2B6000BF08F103089DF80FA0CB
:101150009DF80C20C2EB0A028DF80C209DF810A01F
:101160009DF80D20C2EB0A028DF80D209DF811A00C
:101170009DF80E20C2EB0A028DF80E20E0457FF4A8
:10118000A1AE4846B9F1000FB8BF09F11F004011E8
:101190005B49012480235B4A0C600B6000BF136035
:1011A00000BF0C600B6000BF136000BF0C600B60E1
:1011B00000BF136000BF0C600B6000BF136000BF76
:1011C0000C600B6000BF136000BF0C600B6000BFC1
:1011D000136000BF0C600B6000BF136000BF0C60A9
:1011E0000B6000BF136000BF14600B6000BF136092
:1011F00000BF14600B6000BF136000BF14600B6081
:1012000000BF136000BF14600B6000BF136000BF1D
:1012100014600B6000BF136000BF14600B6000BF60
:10122000136000BF14600B6000BF136000BF146048
:101230000B6000BF136000BF14600B6000BF136041
:1012400000BF14600B6000BF136000BF14600B6030
:1012500000BF136000BF14600B6000BF136000BFCD
:1012600014600B6000BF136000BF14600B6000BF10
:10127000136000BF14600B6000BF136000BF1460F8
:101280000B6000BF136000BF14600B6000BF1360F1
:1012900000BF14600B6000BF136000BF14600B60E0
:1012A00000BF136000BF14600B6000BF136000BF7D
:1012B00014600B6000BF136000BF14600B6000BFC0
:1012C000136000BF14600B6000BF136000BF1460A8
:1012D0000B6000BF136000BF0138B0F1FF3F7FF427
:1012E0005BAFB06940B103685B68984704E003F8FE
:1012F000040C03F8070C45E507B0BDE8F08F00BF0C
:10130000C4F00F40C8F00F402DE9F04F89B00190B4
:1013100088469146827C19788DF81A1059788DF894
:101320001B109B788DF81C30012A34D16D4A13783C
:10133000013303F00703137003F00102D20113F02D
:10134000020F1CBF42F04002D2B213F0040F18BFCC
:1013500042F0200210325FFA82FE0DF11A030DF105
:101360001D0400204FF4807713F8012B002A00F0B1
:10137000C48297FBF2F2D2B2511CC9B203F8041C2A
:1013800001FB0EF52D1203F8075C09B103F8042CDC
:10139000A342E9D10CE000238DF819308DF8183004
:1013A0008DF817308DF816308DF815308DF8143013
:1013B0000199886910B103681B6898474A4C012657
:1013C00026604A4F80253D6000BF256000BF266033
:1013D0003D6000BF256000BF26603D6000BF256006
:1013E00000BF26603D6000BF256000BF26603D60F5
:1013F00000BF256000BF26603D6000BF256000BFC4
:1014000026603D6000BF256000BF26603D6000BFD4
:10141000256000BF26603D6000BF256000BF2660DC
:101420003D6000BF256000BF26603D6000BF2560B5
:1014300000BF26603D6000BF256000BF26603D60A4
:1014400000BF256000BF26603D6000BF256000BF73
:1014500026603D6000BF256000BF26603D6000BF84
:10146000256000BF0020FFF793FB26603D6000BFB2
:10147000256000BF26603D6000BF256000BF26607C
:101480003D6000BF256000BF26603D6000BF256055
:1014900000BF26603D6000BF256000BF26603D6044
:1014A00000BF256000BF26603D6000BF256000BF13
:1014B00026603D6000BF256000BFB9F1000F40F31A
:1014C000658100218C463C46304637462B46064D0A
:1014D00098F8022062B19DF816A082FA5AF25FFADB
:1014E00082FA06E07890FF1FC8F00F40C4F00F406A
:1014F000E2469DF81CB00BFB0AFACAF3072A4AF42D
:101500007F4A2760236000BF2B6000BF27602360F5
:1015100000BF2B6000BF2760236000BF2B6000BFAF
:101520002760236000BF2B6000BF2760236000BFDF
:101530002B6000BF2760236000BF2B6000BF2760C7
:10154000236000BF2B6000BF2760236000BF2B60BB
:1015500000BF5FFA8AF21AF0800F14BF2060286083
:10156000236000BF2B6000BF12F0400F14BF20604B
:101570002860236000BF2B6000BF12F0200F14BF53
:1015800020602860236000BF2B6000BF12F0100FA6
:1015900014BF20602860236000BF2B6000BF12F0E2
:1015A000080F14BF20602860236000BF2B6000BFBD
:1015B00012F0040F14BF20602860236000BF2B606E
:1015C00000BF12F0020F14BF20602860236000BF2C
:1015D0002B6000BF12F0010F14BF20602860236051
:1015E00000BF2B6000BF98F8012032B19DF815A014
:1015F00082FA5AF25FFA82FB00E0E3469DF81BA0F4
:101600000AFB0BFB0BF47F4B98F800202AB19DF8E6
:1016100014A082FA5AF2D2B200E062469DF81AA0F3
:101620000AFB02FA4BEA1A2ACAF3072B5FFA8BF27B
:101630001BF0800F14BF20602860236000BF2B6068
:1016400000BF12F0400F14BF20602860236000BF6D
:101650002B6000BF12F0200F14BF206028602360B1
:1016600000BF2B6000BF12F0100F14BF2060286075
:10167000236000BF2B6000BF12F0080F14BF206072
:101680002860236000BF2B6000BF12F0040F14BF5E
:1016900020602860236000BF2B6000BF12F0020FA3
:1016A00014BF20602860236000BF2B6000BF12F0D1
:1016B000010F14BF20602860236000BF2B6000BFB3
:1016C0005FFA8AF21AF0800F14BF2060286023604E
:1016D00000BF2B6000BF12F0400F14BF20602860D5
:1016E000236000BF2B6000BF12F0200F14BF2060EA
:1016F0002860236000BF2B6000BF12F0100F14BFE2
:1017000020602860236000BF2B6000BF12F0080F2C
:1017100014BF20602860236000BF2B6000BF12F060
:10172000040F14BF20602860236000BF2B6000BF3F
:1017300012F0020F14BF20602860236000BF2B60EE
:1017400000BF12F0010F14BF20602860236000BFAB
:101750002B6000BF9DF817A09DF81420C2EB0A0271
:101760008DF814209DF818A09DF81520C2EB0A02F0
:101770008DF815209DF819A09DF81620C2EB0A02DD
:101780008DF81620013149457FF4A2AE4846B9F1E3
:10179000000FB8BF09F11F0040115C4901248023EC
:1017A0005B4A0C600B6000BF136000BF0C600B60F5
:1017B00000BF136000BF0C600B6000BF136000BF70
:1017C0000C600B6000BF136000BF0C600B6000BFBB
:1017D000136000BF0C600B6000BF136000BF0C60A3
:1017E0000B6000BF136000BF0C600B6000BF136094
:1017F00000BF14600B6000BF136000BF14600B607B
:1018000000BF136000BF14600B6000BF136000BF17
:1018100014600B6000BF136000BF14600B6000BF5A
:10182000136000BF14600B6000BF136000BF146042
:101830000B6000BF136000BF14600B6000BF13603B
:1018400000BF14600B6000BF136000BF14600B602A
:1018500000BF136000BF14600B6000BF136000BFC7
:1018600014600B6000BF136000BF14600B6000BF0A
:10187000136000BF14600B6000BF136000BF1460F2
:101880000B6000BF136000BF14600B6000BF1360EB
:1018900000BF14600B6000BF136000BF14600B60DA
:1018A00000BF136000BF14600B6000BF136000BF77
:1018B00014600B6000BF136000BF14600B6000BFBA
:1018C000136000BF14600B6000BF136000BF1460A2
:1018D0000B6000BF136000BF14600B6000BF13609B
:1018E00000BF0138B0F1FF3F7FF45BAF019B986907
:1018F00040B103685B68984704E003F8040C03F800
:10190000070C45E509B0BDE8F08F00BFC4F00F40FB
:10191000C8F00F40F8B51B4D05F160072C462E4668
:1019200002F080F9631B06F11402D0501834BC4257
:10193000F6D102F077F9144B186002F073F9134BEB
:101940001860134B1968134A11601A68124B1A6019
:101950004FF4CC73013BFDD10C2003F075F9044624
:1019600001F0C2F80D4B1C600D480023037080236A
:1019700043730C490C4A05F011FB02F053F90B4B71
:101980001860F8BD9C95FF1F8C95FF1F8895FF1F61
:10199000E499FF1F9895FF1F7095FF1F6C95FF1F1F
:1019A0007495FF1FE90400006087FF1F9095FF1FDB
:1019B000FF22027000224280704700BF38B5084BFA
:1019C0001C685CB10025606828B16269294602EB99
:1019D000420205F0C7FDA468002CF4D138BD00BF59
:1019E0001496FF1F30B40C4A13685C1C14608B42C1
:1019F00010DB0A4A15684FF47A7101FB04F4084BB6
:101A00001968691AB4FBF1F14180002002490860AD
:101A100012681A6030BC70471896FF1FE499FF1FC8
:101A20002096FF1F2DE9F04782B080468A46264C5B
:101A3000D8F804303BB102F0F5F82368C01AD8F8A2
:101A400004209042F4D302F0EDF81F4B18601F4BB6
:101A50001C688CB3002694F81290B8F80230632BFF
:101A600098BFA6742368D3F804C0616862698DF8D2
:101A700004608DF805608DF80660BAF1000F13D090
:101A8000234635461F7BD87B57B148B1013007FB51
:101A900000000AFB00F0000C0DF1040E05F80E002A
:101AA00001350133032DEDD1204601ABE04784F829
:101AB0001290A468002CCED140461921FFF792FF66
:101AC00002B0BDE8F08700BF1C96FF1F1496FF1FF1
:101AD0004AB181B1084B93FBF1F143688B422CBFB3
:101AE00043604160704721B1034B93FBF1F14160CA
:101AF000704700234360704740420F00F8B504462A
:101B00000F4615461E1EDCBF1646002503689B685F
:101B1000984705EB45052F446760666123681B699C
:101B200020469847014603480122FFF7D1FF20468F
:101B3000F8BD00BF0C96FF1F08B50248FFF738FF3D
:101B400008BD00BF0C96FF1F70B4027845788478FA
:101B500002F01F00C00000EB800303EB0313C3F38C
:101B6000072312F0800F23D112F0400F0DD112F095
:101B7000200F05D1D843C0B200221A46002342E00C
:101B80005533DAB20023AB203DE012F0200F0AD12A
:101B9000AA2202FB00F00012C0F1AB00C0B2553B1C
:101BA000DAB200232FE00022DA43D2B200202AE08A
:101BB00012F0400F15D112F0200F0CD10023AA23F0
:101BC00003FB00F0000AC0F1AB02D2B200F15503F2
:101BD000DBB2002017E00022DA431846D3B200221D
:101BE00011E012F0200F07D103F15500C0B200221E
:101BF000C3F1AB03DBB206E0A3F15500C0B2002293
:101C0000C3F15503DBB2FF2D23D02E1C18BF0126D4
:101C100028B105FB00F006EB2020C0B200E0002058
:101C20002AB105FB02F206EB2222D2B200E000222A
:101C300023B105FB03F306EB1323DBB2ED43EDB257
:101C400005FB05F52D0A2844C0B22A44D2B22B4424
:101C5000DBB2FF2C1ED004FB04F52D12002C0CBFB0
:101C60002C466C1C14F0FF040CBF0025012528B184
:101C700004FB00F005EB102000F0FF0022B104FB94
:101C800002F205EB1222D2B223B104FB03F305EBFF
:101C90001323DBB208704A708B7070BC704700BFB2
:101CA00010B5044602F0B0FE204610BD08B503484A
:101CB0000349044A05F072F908BD00BF2896FF1FCA
:101CC000A11C00006087FF1F08B503480349044AB0
:101CD00005F064F908BD00BF3096FF1FA11C00008D
:101CE0006087FF1F08B503480349044A05F056F909
:101CF00008BD00BF3896FF1FA11C00006087FF1FB2
:101D000008B503480349044A05F048F908BD00BF77
:101D10004096FF1FA11C00006087FF1F08B5034805
:101D20000349044A05F03AF908BD00BF4896FF1F71
:101D3000A11C00006087FF1F08B503480349044A3F
:101D400005F02CF908BD00BF5096FF1FA11C000034
:101D50006087FF1F0B4B1B7813B90B4B1B7873B1BC
:101D60000A4B1B78202B03D90123037100207047F5
:101D7000581C064A1070064AD154012070470020B2
:101D8000704700BFC296FF1F8496FF1FC396FF1FB8
:101D90006096FF1F704700BF024B1878024B1B78FC
:101DA000C01A7047C196FF1FC096FF1F074B1B78D4
:101DB000074A12789A4205D9591C044A1170054AFB
:101DC000D05C70474FF0FF30704700BFC096FF1FD8
:101DD000C196FF1F8896FF1F054B1B78054A127896
:101DE0009A4286BF044AD05C4FF0FF30704700BF74
:101DF000C096FF1FC196FF1F8896FF1F08B5104BA6
:101E0000DB7813F0200F0CD1122001F09DFE0D4B5A
:101E10001B689BB100210C4A11700C4A107898473E
:101E200008BD0B4A13780133DBB21370012B02D8C3
:101E3000084B1B7813B9122001F086FE08BD00BFC5
:101E4000006006405C96FF1FC096FF1FC196FF1FF3
:101E5000AC96FF1F8496FF1F38B514460D4B1B78B8
:101E600013B90D4B1B7893B10C4B1D78C5F12103B1
:101E7000A34202D2012202711C460948284422468C
:101E800001F02AFB2544054B1D70204638BD00207B
:101E900038BD00BFC296FF1F8496FF1FC396FF1F69
:101EA0006096FF1F002202714FF47A718160027305
:101EB000014A0260704700BF207A000008B53D4B20
:101EC000DB78DBB213F0100F06D01021394AD17045
:101ED00013F0400F03D108BD13F0400F2CD013F0C6
:101EE000040F1BD00023344A1370344A1370344B50
:101EF0001B681BB19847314B1B782BB901222F4B24
:101F00001A7000222F4B1A702A4BD0229A702D4A39
:101F100012781A7101222C4B1A7009E00122264B0B
:101F20001A700022294B1A70224BC0229A701B791A
:101F30000222204BDA7008BD1E4A927812F0100F70
:101F40001CD013F0010F14D11F4B1B781B4A1278C1
:101F50009A4207D9591C1C4A11701A4AD25C154B77
:101F60001A7102E00022134B1A71D022114B9A70A1
:101F70001BE0104BC0229A701B7916E00022144B14
:101F80001A7012201349032201F096FD094B1B79A8
:101F9000DAB20E4B1B781F2B07D80749097821B1FD
:101FA000581C0A4908700C49CA540222014BDA70C5
:101FB00008BD00BF006006405896FF1FC396FF1F74
:101FC000A896FF1F6096FF1FC496FF1FC196FF1FB4
:101FD000AC96FF1FFD1D00008896FF1F08B5024844
:101FE000FFF760FF08BD00BFB096FF1F084B00223F
:101FF0005A719A719A721A730221196183F830200A
:1020000083F83C200349996383F83E20704700BF62
:10201000E496FF1F407A0000084B1A6842F4806281
:102020001A604FF00042DA62FF225A631A46D36AFE
:10203000002BFCDA014B986BC0B2704700C0024025
:1020400010B50446164A174B1A6010F0010F02D063
:10205000FFF7E2FF013C052C04D9032100231148BE
:10206000114A02E06108F9D104E04263023C013305
:102070008B42FADB4CB10B4A0B48D36A13F0F00FDA
:10208000FBD05063936B023CF7D1002907DD054A72
:10209000D36A13F0F00FFBD0936B0139F8D110BD68
:1020A00000041F8000C00240FFFF0090064B1A682A
:1020B00042F480621A604FF00042DA6258631A46B6
:1020C000D36A002BFCDA704700C0024008B50079E3
:1020D000012101F061FD114B1B78F3B100220F4B80
:1020E0001A700F4B1B78C3B113F0010F03D00D4BC7
:1020F0001A680D4B1A600A4B1B7813F0020F03D0BD
:10210000084B5A68094B1A60054B1B7813F0040FF3
:1021100003D0044B9A68064B1A6008BD4897FF1F0E
:10212000E096FF1FD496FF1F00E100E004E100E00D
:1021300008E100E010B5244B1B78002B3ED10122B2
:10214000214B1A70214B1A68214B1B78002B28D089
:1021500072B61F4B1B7813F0010F07D01D4B1C6884
:102160001D49096821401D4C21601960184B1B78DE
:1021700013F0020F07D01A4B1C6817494968214019
:10218000164C61601960124B1B7813F0040F07D0D6
:10219000144B1C68104989682140104CA1601960DB
:1021A00062B6114BDB68934208D00F4B0F491960A0
:1021B000DA6042F080421A610D4A1A60007900210B
:1021C00001F0EAFC10BD00BF4897FF1F4497FF1FB6
:1021D000E096FF1F80E100E0C896FF1FD496FF1F26
:1021E00084E100E088E100E000C0024001401F00FF
:1021F00000001F8038B5044683797BB1008940F226
:102200000123984205D840F20225281AFFF718FF4B
:1022100025812046FFF75AFF0023A37138BD00BF78
:1022200070B50E46084B1C681D46A4B2FFF7F4FEBD
:10223000FF2805D02B689BB21B1BB342F6DB01E0E5
:10224000012070BD002070BDE499FF1FF8B5054660
:102250000F461646FFF7CEFF2846FFF76BFF2846CE
:102260004FF49671FFF7DCFF47F04000FFF71EFFC9
:10227000182426FA04F0C0B2FFF718FF083C14F146
:10228000080FF6D127B1082F0CBF8720FF2000E0F0
:102290009520FFF70BFF0024FFF7BEFEE87210F059
:1022A000800F03D00134B4F5807FF5D1F8BD00BFB5
:1022B00070B504460E4B1D681E46ADB208E033688B
:1022C0009BB25B1BB3F5967F02DD0F23637108E0C1
:1022D000FFF7A2FEE072FF28F1D0FE2806D00D2302
:1022E00063712046FFF7F2FE002070BD012070BD33
:1022F000E499FF1FF8B505460C4617461E46002B0D
:1023000000F089801344B3F5007F7FDC83792BB123
:1023100003688B4202D10389934216D92C602B7B30
:10232000032B18BF6402284611212246FFF78EFFB7
:1023300010B103236B7169E02846FFF7B9FF00284D
:1023400064D000232B810123AB713846FFF778FE60
:102350003046334A334B1A6016F0010F07D0069A05
:10236000541CFFF759FE069B1870701E0694052832
:1023700004D9032700232B492B4A02E04708F9D14F
:1023800003E04A6301339F42FBDCA0EB4700069A5F
:102390001044824219D214462249DFF88CC0CA6A1E
:1023A00012F0F00FFBD0C1F834C08B6BC3F30722DF
:1023B000227063700234A042F1D8069AD3430344DA
:1023C00023F0010302331A44069200EB4700069BF8
:1023D00098420DD91C461349CA6A12F0F00FFBD07F
:1023E0008B6BC3F30722227063700234A042F3D8D0
:1023F0002B8933449BB22B81AA7A12B1B3F5007FAB
:102400000BD32846FFF7F6FE0120F8BD2846FFF75C
:102410005DFE0020F8BD0120F8BD0120F8BD00BF21
:1024200000041F8000C00240FFFF009000B583B091
:10243000009200224FF40073FFF75CFF03B05DF8D9
:1024400004FB00BFF8B50646214B186840F48060D5
:1024500018604FF00040D8625963114602F50077CA
:102460000446DA6A002A0FDBFBE7DA6A002A14DB8B
:10247000FBE7D36A002B1CDBFBE7112373713046AB
:10248000FFF724FE0020F8BD08460A781D6845F4D1
:1024900080651D60DC625A63E7E742781D6845F499
:1024A00080651D60DC625A630231B942D9D1084AA5
:1024B000DFE7FF20FFF7FAFDFF20FFF7F7FDFFF74B
:1024C000ABFDF07200F01F000528D6D10120F8BD49
:1024D00000C0024038B5044615460B4611B9122318
:1024E00043712BE0027B032A18BF4B0218211A46C6
:1024F000FFF7ACFE10B1042363711FE02046FE21FC
:102500002A46FFF79FFFC8B120464FF41671FFF728
:1025100087FE10B91523637110E020460D210022BB
:10252000FFF794FE10B9FFF777FD10B11423637124
:1025300004E02046FFF7CAFD012038BD2046FFF722
:10254000C5FD002038BD00BF014A024B1A6070472C
:10255000011001384497FF1F10B50446006A01219D
:1025600004F1080200F05CFA034650B1E3693BB99C
:10257000A368E361637963F07F036371012300E083
:102580000123184610BD00BF10B50446006900F0D5
:10259000A5F920B1207D034B03EB401010BD0020B6
:1025A00010BD00BF5897FF1FF8B504460F4683794A
:1025B0007BB382698A422BD3022B02D1E1600123D3
:1025C00027E021B900238360C360012321E0C368B1
:1025D000026A157C09355A1EEA40013921FA05F5CF
:1025E000AA4200D813B9E369A3600AE0AD1A08E073
:1025F000206AA168324600F095F9013D034610B902
:1026000007E004F10806002DF2D1E760012300E0A5
:1026100000231846F8BD00BF38B50446807918B3CA
:1026200094F90530002B1BDA20460121FFF7ACFF9F
:102630000546C0B1A379012B9CBFA369C361A38BDD
:102640004383E38B8382094B1B682BB1183005F160
:10265000160198472B8B6B82637903F07F036371BC
:1026600000F010F938BD002038BD00BF4C97FF1FA7
:102670002DE9F04F85B00446884601928379012BFD
:1026800040F0BE80437913F0020F00F0B98013F0E0
:10269000040F08D08169C3688B4204D0FFF784FF20
:1026A000002800F0AD80019A002A00F08C801646C8
:1026B000DFF8B0A1DFF8B0B1206AE76890F80490C5
:1026C00009F1FF3909EA5729C7F3080719F0FF098B
:1026D00029D1002F40F0AA80A16851B9E36933B92C
:1026E0002046FFF739FF002840F08E8088E0A36085
:1026F0008AE003AA00F016F9002800F0A880039BE6
:10270000226A92F820004FF6F871524A102808BF4A
:102710000A46934205D32046FFF71EFF002873D1D7
:102720006EE0A36070E0C7F50075ADB2AE4238BF91
:102730003546A368023B027C9340426913449944A6
:10274000B5F5007F12D1DBF800304B4504BF4FF0E8
:10275000FF33CBF80030404B186849464246FFF73C
:10276000B9FE00284CD008F5007824E07FB9E26873
:10277000A3699A420BD300F085F8002840D0CBF82B
:102780000090364A137843F00103137005E0484681
:10279000012100F0A3F8002832D05744781987426D
:1027A00009D03B46424612F8011B03F8011B834245
:1027B000F9D1C71BB844761BB6B2E3681D44E56087
:1027C000002E7FF479AFE368A269934205D9A36133
:1027D000637963F07F03637108E0214B1B682BB1C1
:1027E000019B1BB1637963F07F036371637913F01D
:1027F000080F03D02046FFF70FFF08B1019826E02D
:1028000001232371002022E0B6F5007F34BF354656
:102810004FF40075236AA268023A197C02FA01F9A2
:102820005B699944B5F5007FA1D18CE7C7F50075C8
:10283000ADB2AE4238BF3546A368023B027C03FA14
:1028400002F943699944B5F5007FA0D17BE705B053
:10285000BDE8F08FF8FFFF0F5497FF1F5899FF1F37
:102860004C97FF1F5897FF1F6887FF1F00B583B065
:1028700002AB03F8011D19460122FFF7F9FE03B070
:102880005DF804FB08B5104B1B78D3B10F4B1868EB
:102890000F4B19680F4AFFF71DFE034690B10E4B10
:1028A000196849B1094B18680A4AFFF713FE034635
:1028B00040B10022084B1A600022034B1A7001231A
:1028C00000E00123184608BD5899FF1F5497FF1FC9
:1028D0006887FF1F5897FF1F5097FF1F38B50446A2
:1028E0000D460C4B1B6883420DD0FFF7CBFF034610
:1028F00070B1094B18682146084AFFF797FD034657
:1029000030B1044B1C60064B1A7815431D7001232F
:10291000184638BD6887FF1F5497FF1F5897FF1F41
:102920005899FF1F70B504460D461646C36801331B
:102930008B4225D3C36990F82020102A0CBF080AC7
:10294000C8091844104B1B68984204D00021FFF7B7
:10295000C5FF0346A8B194F82030102B06D1EDB284
:102960000A4B33F81530336001230AE005F07F0588
:10297000064B53F8253023F070433360012300E009
:102980000023184670BD00BF6887FF1F5897FF1FC0
:10299000F8B504460D461746012931D9C3680133FD
:1029A00099422FD8C36990F82020102A0CBF0E0A34
:1029B000CE091E44164B1B689E4205D030460021AE
:1029C000FFF78CFF034600B394F82030102B04D19E
:1029D000EDB2104B23F8157004E005F07F050D4BA8
:1029E00043F825700C4B1A7842F001021A70237ECE
:1029F000012B09D9A3681E44084B1E60012304E083
:102A0000002302E0002300E001231846F8BD00BFC8
:102A10006887FF1F5897FF1F5899FF1F5097FF1F88
:102A20002DE9F04F85B006468A46009217681FB11F
:102A300001370023019305E00768012914BF002333
:102A400001230193F36803F10108DBB13C46002543
:102A50004FF00209CB46A0453CBF4C465F4630468E
:102A6000214603AAFFF75EFF60B1039B0BB1671C11
:102A700003E0631CDB1B534506D001350134F368CA
:102A8000AB42E8D800232AE0304621466FF070427E
:102A9000FFF77EFF034648B921E0651E3046294610
:102AA0002246FFF775FF034618B918E0BC42F4D878
:102AB00003E0BD4201D92C46EFE7009B196829B11C
:102AC00030463A46FFF764FF034640B1009B1F6063
:102AD000019B1BB101373760012300E00123184639
:102AE00005B0BDE8F08F00BF38B50446022303727D
:102AF0000F4B1A6842F000621A600C3B1A6842F0F1
:102B000000621A60AC2002F09FF805460021094AD5
:102B1000094B00F05DFB2560AC2002F095F80546FE
:102B20000121064A064B00F053FB6560204638BD84
:102B30003C8004407C7A0000787A00004C7A0000E7
:102B4000487A000008B501290CBF4068006800F011
:102B500097F808BD08B501290CBF4068006800F06F
:102B6000E5FB08BD70B504460D46B2F1FF3F2DD11F
:102B7000006800F0F9FB06466068294600F0F4FBA7
:102B800086B150B123686068597D427D914238BF5B
:102B90001846294600F00CFC70BD2068294600F05C
:102BA00007FC70BD20B16068294600F001FC70BDD3
:102BB0002368DA8A92B242F00402DA826368DA8A1F
:102BC00092B242F00402DA82002070BD1AB90068A5
:102BD00000F0EEFB70BD012A03D1406800F0E8FB75
:102BE00070BD0368DA8A92B242F00102DA820020F4
:102BF00070BD00BF01290CBF436803685B6C186897
:102C000000B2704772B601234376826D520102F121
:102C100084420021D161826D520102F184429361AC
:102C2000826D520102F18442D36162B6704700BFE7
:102C300008B590F821308B421DD001290ED16022B9
:102C40000D4B1A70E12201331A70012380F82130F4
:102C5000426D520102F1844213600AE049B9002337
:102C6000064A137080F82130426D520102F184420D
:102C70001360FFF7C7FF08BD004007400140074051
:102C8000C069704738B504460D46437E13F0FF0F08
:102C900001D000F04DF8012D06D8A36D5B0103F1C2
:102CA00084420023936040E0A36D5B0103F1844301
:102CB00001229A60042D0CD8A36D5B0103F18442BC
:102CC00000235360A26D520102F184421360042379
:102CD0002BE0082D0DD8A36D5B0103F18443012285
:102CE0005A60A36D5B0103F1844300221A6008233C
:102CF0001BE0102D0DD8A36D5B0103F1844300226E
:102D00005A60A36D5B0103F1844301221A60102312
:102D10000BE0A36D5B0103F1844201235360A26DBC
:102D2000520102F184421360202384F8203038BD20
:102D300070B50446836D5B0103F18442D26942B1F0
:102D400002F0C6F8A36D5B0103F18442D269002A48
:102D5000F6D103F184439B6923B1E38A9BB243F02C
:102D60000203E38272B6637E13F0FF0F37D0236F46
:102D70001A68636F1E68A36F1D68E36F1868D4F844
:102D800080301968D4F884301B6832442A440244E5
:102D90000A441A44C2F34E02636E42F400421A60BF
:102DA000D4F88C301A68D4F890301E68D4F8943077
:102DB0001D68D4F898301868D4F89C301968D4F895
:102DC000A0301B6832442A4402440A441A44C2F325
:102DD0004E02A36E42F400421A600023637662B68C
:102DE000A37E6BB12046022100F06CF82046022140
:102DF00000F054F920460421FFF744FF0023A37696
:102E000070BD00BF38B504460D46C37E8B4258D016
:102E1000437E13F0FF0F01D0FFF78AFF072D07D97C
:102E20000D2D29D8A5F10803DBB2012B0FD800E046
:102E30000825E36B5B0103F184420023D360E26B5E
:102E4000520102F184429360FF23E36138E0A5F16F
:102E50000A03DBB2012B10D8E36B5B0103F184435F
:102E60000122DA60E36B5B0103F1844300229A6084
:102E700040F2FF33E36123E01025A5F10C03DBB240
:102E8000012B0FD8E36B5B0103F184430022DA606E
:102E9000E36B5B0103F1844301229A6040F6FF7308
:102EA000E3610DE0E36B5B0103F184420123D36036
:102EB000E26B520102F1844293604FF6FF73E361CB
:102EC000E57638BD38B504460D4690F824308B427F
:102ED00000F0E280437E13F0FF0F01D0FFF728FFE0
:102EE0000F2D56D9236C5B0103F184420123D3607B
:102EF000E26B520102F184425360E26B520102F133
:102F000084421360E36B5B0103F18442002353614D
:102F1000E26B520102F184429361102D0CD1236CBB
:102F20005B0103F1844300229A60E36B5B0103F1D0
:102F300084430122DA6129E0112D0BD1236C5B015E
:102F400003F1844201239360E26B520102F1844257
:102F5000D3611BE0122D0BD1236C5B0103F1844282
:102F600000239360E26B520102F18442D3610DE0D1
:102F7000132D0BD1236C5B0103F1844301229A6072
:102F8000E36B5B0103F184430022DA6184F824508F
:102F900038BD236C5B0103F184430022DA6065B91C
:102FA000236C5B0103F184439A60E36B5B0103F1E3
:102FB00084430122DA61612353E0012D0DD1236C9A
:102FC0005B0103F1844300229A60E36B5B0103F130
:102FD00084430122DA61612343E0022D0CD1236C8A
:102FE0005B0103F1844200239360E26B520102F122
:102FF0008442D361412334E0032D0DD1236C5B0166
:1030000003F1844301229A60E36B5B0103F1844383
:103010000022DA61212324E0042D0DD1236C5B0111
:1030200003F1844301229A60E36B5B0103F1844363
:103030000022DA61212314E0052D0CD1236C5B0101
:1030400003F1844201239360E26B520102F1844256
:103050000021D16105E0E38A9BB243F00103E382E2
:1030600038BDE26B520102F1844200215160E26BF3
:10307000520102F1844201211160E26B520102F11E
:10308000844299099161E26B520102F18442C3F3D7
:103090004013536184F8245038BD00BF38B504464E
:1030A0000D4690F825308B425FD0437E13F0FF0F22
:1030B00001D0FFF73DFE8DB9E36B5B0103F1844363
:1030C00001221A61236C5B0103F1844200235360E7
:1030D000226C520102F18442136044E0012D11D1AF
:1030E000E36B5B0103F1844201231361226C520103
:1030F00002F1844200215160226C520102F18442AB
:10310000136030E0022D11D1E36B5B0103F18442C7
:1031100001231361226C520102F184425360236C3B
:103120005B0103F1844300221A601CE0EB1EDBB25A
:10313000012B10D8E36B5B0103F18442012313617F
:10314000226C520102F184425360226C520102F15E
:103150008442136007E0052D07D1E36B5B0103F1A7
:10316000844300221A6184F8255038BD38B50446DE
:103170000021C176C16180F82010022280F8212050
:1031800080F82210012580F8235080F8241080F860
:1031900025104176C1824175026C520102F18442D0
:1031A0001561FFF745FD20460A21FFF72BFEA576A6
:1031B00020462021FFF766FD20462946FFF782FEC4
:1031C00020462946FFF76AFF2046FFF71BFD38BD62
:1031D00010B5044601768262C3624FF40033036384
:1031E000CB0403F1804202F56C324263334A1A4445
:1031F0008263334A1A44C263324A1A440264324A2E
:103200001A444264314A1A448264314A1A44C264FC
:10321000304A1A440265304A1A4442652F4A1A4419
:1032200082652F4A1A44C2652E4A1A4402662E4A03
:103230001A4442662D4A1A4482662D4A1A44C266CE
:103240002C4A1A4402672C4A1A4442672B4A1A44F1
:1032500082672B4A1A44C2672A4A1A44C0F880205F
:10326000294A1A44C0F88420284A1A44C0F8882001
:10327000274A1A44C0F88C20264A1A44C0F89020E5
:10328000254A1A44C0F89420244A1A44C0F89820C9
:10329000234A1A44C0F89C20224A1A44C0F8A020AD
:1032A00001EB8102204B03EBC203C0F8A43039319B
:1032B00080F8A810FFF75AFF204610BD04B0034065
:1032C00008B003400CB0034010B0034014B00340FA
:1032D00018B003401CB0034020B0034024B00340AA
:1032E00050B0034028B003402CB0034030B003403E
:1032F00034B0034038B003403CB0034040B003401A
:1033000044B0034048B003404CB0034054B00340C5
:1033100058B003405CB0034060B0034064B0034069
:1033200068B003406CB003401060034010B5044621
:10333000437E13F0FF0F01D0FFF7FAFC012284F85F
:103340002220636B5B0103F184439A6194F8A81017
:103350004B119B0003F1604303F5614301F01F0132
:103360008A401A6010BD00BF2C2907D8836A585CB8
:1033700000F01F001F3818BF012070470020704761
:10338000836A5B5C13F0800F026C4FEA421202F119
:10339000844214BF00210121116172B6426B03F017
:1033A0001F0390F8221003EB8113136062B670477D
:1033B00070B504460E46FFF7D7FF054628B9E38AE5
:1033C0009BB243F00403E3822BE0637E13F0FF0F14
:1033D00002D02046FFF7ACFC636D5B0103F1844330
:1033E000DB69003318BF0123237583B172B6636BA9
:1033F0001B682360E36B1B68E360236C1B6823611D
:10340000636D1B686360A36D1B68A36062B6A36DE8
:103410005B0103F184430022DA6020463146FFF766
:10342000AFFF284670BD00BF014B0360704700BF6F
:10343000B07A000010B50446FFF7F6FF204601F011
:1034400007FC204610BD00BF034A0260082242600C
:1034500000228260C2607047B07A000042688368D0
:103460005340C068984214BF00200120704700BF3D
:10347000C2688068824214BF00200120704700BFEC
:1034800001314068400001380840704738B50446B3
:10349000C5684368013B2B40043340F82310FFF715
:1034A000DDFF20B12046A168FFF7EAFFA0602046BB
:1034B0002946FFF7E5FFE06038BD00BF38B5044698
:1034C00081684368013B0B40043350F82350FFF7F9
:1034D000D7FFA060284638BD844641EA000313F0B8
:1034E00003036DD1403A41D351F8043B40F8043B0B
:1034F00051F8043B40F8043B51F8043B40F8043BCE
:1035000051F8043B40F8043B51F8043B40F8043BBD
:1035100051F8043B40F8043B51F8043B40F8043BAD
:1035200051F8043B40F8043B51F8043B40F8043B9D
:1035300051F8043B40F8043B51F8043B40F8043B8D
:1035400051F8043B40F8043B51F8043B40F8043B7D
:1035500051F8043B40F8043B51F8043B40F8043B6D
:1035600051F8043B40F8043B403ABDD2303211D30D
:1035700051F8043B40F8043B51F8043B40F8043B4D
:1035800051F8043B40F8043B51F8043B40F8043B3D
:10359000103AEDD20C3205D351F8043B40F8043B0D
:1035A000043AF9D2043208D0D2071CBF11F8013B0B
:1035B00000F8013B01D30B8803806046704700BFD1
:1035C000082A13D38B078DD010F003038AD0C3F1E0
:1035D0000403D21ADB071CBF11F8013B00F8013BC2
:1035E00080D331F8023B20F8023B7BE7043AD9D381
:1035F000013A11F8013B00F8013BF9D20B78037056
:103600004B7843708B7883706046704760223A4BEA
:103610001A70E12201331A70384B1B78082B10D135
:10362000012203F1804303F56C331A6013233449FC
:103630000B6001F5FF2101F2FC710A60314A136051
:103640001FE00A2B0DD139222F4B1A6013232C496E
:103650000B6001F5FF2101F2FC710A60294A136039
:103660000FE00C2B0CBF35223D22274B1A60122392
:1036700023490B6001F5FF2101F2FC710A60214A28
:103680001360224B1B7833B10123214A136002F5EA
:103690000022136005E000231D4A136002F500229A
:1036A00013601C4B1B78012B06D880231A4A136029
:1036B00002F5002213601AE0042B06D88423164A70
:1036C000136002F50022136011E0082B06D8852351
:1036D000114A136002F50022136008E0102B94BF1A
:1036E000862387230C4A136002F50022136001220F
:1036F0000A4B1A70704700BF004007406C87FF1FDD
:103700000CB003400CB00B4008B003405A99FF1FA7
:1037100020B003406D87FF1F24B003405999FF1F5D
:10372000024B1A6801321A60704700BFE499FF1F0C
:1037300008B50D4C236813F4802F01D000F0E6FB90
:10374000236813F4806F01D001F002FE236813F4A4
:10375000006F01D002F078F8236813F4805FE9D09D
:1037600002F080FAE6E700BF3480044008B5FFF7B6
:10377000DFFF00BF1022014B1A8070470020054078
:10378000704700BF024A136818441060184670471B
:103790007087FF1F0078D0F1010038BF002070470C
:1037A00001230370704700BFEFF31383ABB9EFF34E
:1037B0001083ABB9EFF3058323B10F2B05D9094A69
:1037C000985C03E04FF4807000E00020EFF3118379
:1037D0003BB1834238BF184670474FF0FF30704707
:1037E00000207047F0E300E010B5154B1C681C602A
:1037F00014F4805F05D0134BDB6813B1114BDB6809
:10380000984714F4005F05D00E4B1B6913B10D4BA4
:103810001B69984714F0200F05D00A4B1B6E13B19B
:10382000084B1B6E984714F0100F07D0054BD3F8C8
:1038300084301BB1034BD3F88430984710BD00BFD0
:10384000A09004405C99FF1F10B5274B1C681C60BA
:1038500014F4803F05D0254B1B6813B1234B1B6824
:10386000984714F4003F05D0204B5B6813B11F4B01
:103870005B68984714F0010F05D01C4B1B6C13B10B
:103880001A4B1B6C984714F0020F05D0174B5B6C5A
:1038900013B1164B5B6C984714F0080F05D0134B0F
:1038A0009B6C13B1114B9B6C984714F0040F05D01F
:1038B0000E4BDB6C13B10D4BDB6C984714F4002FEF
:1038C00005D00A4B5B6E13B1084B5B6E984714F43E
:1038D000802F07D0054BD3F880301BB1034BD3F8B2
:1038E0008030984710BD00BFA0A004405C99FF1F26
:1038F00010B5384B1C681C6014F0080F05D0364B0F
:103900005B6A13B1344B5B6A984714F0100F05D013
:10391000314B9B6A13B1304B9B6A984714F0400FB0
:1039200005D02D4BDB6A13B12B4BDB6A984714F0A3
:10393000800F05D0284B1B6B13B1274B1B6B98478F
:1039400014F0200F05D0244B5B6B13B1224B5B6B43
:10395000984714F0010F05D01F4BDB6B13B11E4BC2
:10396000DB6B984714F0020F05D01B4B9B6D13B116
:10397000194B9B6D984714F0040F05D0164BDB6D67
:1039800013B1154BDB6D984714F4007F05D0124B33
:10399000DB6E13B1104BDB6E984714F4807F05D0BB
:1039A0000D4B1B6F13B10C4B1B6F984714F4806FBA
:1039B00005D0094B5B6F13B1074B5B6F984714F44D
:1039C000006F05D0044B9B6F13B1034B9B6F98475F
:1039D00010BD00BFA0B004405C99FF1F10B5264B7E
:1039E0001C681C6014F0010F05D0244B9B6813B1B8
:1039F000224B9B68984714F0800F05D01F4B5B69E2
:103A000013B11E4B5B69984714F0100F05D01B4B88
:103A10009B6913B1194B9B69984714F0040F05D0AB
:103A2000164BDB6913B1154BDB69984714F0080F8F
:103A300005D0124B1B6A13B1104B1B6A984714F048
:103A4000020F05D00D4B9B6B13B10C4B9B6B984732
:103A500014F0200F05D0094B1B6D13B1074B1B6DE4
:103A6000984714F0400F05D0044B5B6D13B1034B26
:103A70005B6D984710BD00BFA0C004405C99FF1F5C
:103A800010B50B4B1C681C6014F0020F05D0094BDD
:103A90009B6E13B1074B9B6E984714F0010F05D036
:103AA000044BDB6F13B1034BDB6F984710BD00BFB6
:103AB000A0D004405C99FF1F30B4212831D8042ADB
:103AC0002FD8DFE802F00709050B03000B2406E0FE
:103AD0000A2404E0082402E00C2400E00924124B2C
:103AE00003EBC0035A68114B114DC3F89C51114DA3
:103AF000C3F8A051104DC3F8A451104DC3F8A851FC
:103B00000F4DC3F8AC5172B6136823F470231360E1
:103B10000C4D45F8201043F0807343EA04441460D0
:103B200062B630BC704700BFB87A00000082FF1F49
:103B3000E937000049380000F1380000DD390000A5
:103B4000813A00005C99FF1F094B03EBC0035A68E0
:103B500072B6136823F0877323F4803343F08073C5
:103B600013600022034B43F8202062B6704700BF69
:103B7000B87A00005C99FF1F044B00221A600449C8
:103B80000A60044A106010221A60704714D0034083
:103B900004D0034000D0034021281ED80F4B53F817
:103BA000303093F8802212F0FF0F08D019B10122B3
:103BB00083F880207047012283F800217047074B6B
:103BC00003EBC000436821B11A6842F003021A6097
:103BD00070471A6822F002021A607047B87A000033
:103BE00021281CD80E4B03EBC0035B68012908D1C8
:103BF0000B4A52F8302082F880124FF4A2721A60F9
:103C00007047074A52F83020002082F8800219B924
:103C10004FF480721A60704740F203121A607047C6
:103C2000B87A000072B60C4B1B680C4A12680C493B
:103C3000096862B611F0806F02D0322B88BF013262
:103C4000C3F5BB33FF330749A1FB03039B094FF4C3
:103C50007A7000FB0230704718E000E0E499FF1F23
:103C600004ED00E0ABAAAAAA38B50546FFF7DAFFD3
:103C7000044665B1FFF7D6FF001BB0F57A7F03D38A
:103C8000013D04D004F57A7401F022F9F2E738BD61
:103C900010B5254B4FF400021A604FF080721A6085
:103CA0004FF000721A604FF080621A604FF00062AD
:103CB0001A6000201D4B18604BF6FF710433196029
:103CC00028231B4A1360083213600832136008323D
:103CD0001360083213600832136008321360083230
:103CE00013600922134C226004F5805404342060D0
:103CF000043421600434236008342360143C2260BF
:103D000004F5FE24043420600B4801600B490B606D
:103D100008310B600A4B1A60FFF778FC0420FFF7AC
:103D2000A3FF00F06BFC10BD08E100E0048003403D
:103D30000C8003400080034008800B400C800B4047
:103D400000800B4030B40E4B1B7843F002020D4C48
:103D500004EBC20460600C48007800280CBF882483
:103D6000C82444EA0141074D45F8321080F00100B3
:103D7000054A107083F00103014A137030BC70478C
:103D8000509AFF1F0080FF1FC99AFF1F10B4431EE7
:103D9000032B11D872B60A4A52F8230050B1426878
:103DA000074941F82320074A32F813400188611A75
:103DB00022F8131062B600E000205DF8044B704753
:103DC000409AFF1FEC9CFF1F013803280DD872B6E4
:103DD000074B53F820302BB1002001305B68002BDB
:103DE000FBD100E0002062B670470020704700BFA2
:103DF000949AFF1F38B572B601231B491B4C5A1801
:103E000012F8012C12F0080F24D09A0054F8325006
:103E10006DB9164B03EBC20108304860144943F8F2
:103E20003210144B1A78013A1A7062B638BD42F05B
:103E3000010254F832506DB90C4B03EBC20108304B
:103E400048600D4943F832100A4B1A78013A1A704B
:103E500062B638BD0133052BD1D162B60022054BC5
:103E60001A7000F02FFC38BDF07B00000080FF1FAF
:103E700088004000BE9AFF1FC800400010B4431ED7
:103E8000032B37D8400140F010001C4A104472B692
:103E90001B4AD25C032A09D8DFE802F019021B058D
:103EA0000830022216E00830042213E0154A52F8C6
:103EB00023201AB9134A42F8231003E0124A52F899
:103EC00023205160104A42F8231062B612E0032208
:103ED00000E005220A4CE25401F10803436000F0BF
:103EE0000803002B0CBF8823C8230A8843EA024337
:103EF000036062B65DF8044B704700BF0080FF1F8F
:103F0000FC99FF1F949AFF1FA49AFF1F2DE9F84FF9
:103F1000A34CDFF8E092DFF8E0A2DFF8E0B225780A
:103F2000EDB215F0040F1DD09E4B1B7813F0FF0F60
:103F300016D09D4B1B7803F0FF022BB1531EDBB252
:103F4000994A137003B900BE984B1B7803F0FF0227
:103F500033B1531EDBB2954A13700BB900F0F2FC7B
:103F60000423237015F0080F00F0DC8299F800306C
:103F7000DBB21D0940F01D828D4D9E0805EBC60386
:103F80005A6855F83630C3F38303013B0C2B00F21B
:103F90000C82DFE813F0C701C7010A020A020A0215
:103FA0000A020A020A02E4010A020A020A020D00D7
:103FB000804913680B6052684A607F4A45F8362092
:103FC00000227E490A607A490A618A6101217C4A9D
:103FD00011709BB240F28162934218D8B3F5D06F52
:103FE0002ED2B3F5817F00F01E8106D8802B00F021
:103FF000C980822B00F0CC8062E140F20232934211
:1040000000F02681B3F5A06F00F05E8158E142F226
:104010002102934200F0828107D8B3F5086F00F0C7
:10402000AB80B3F5106F11D04AE142F221229342E6
:1040300000F0418142F22132934200F045813FE19C
:10404000604B5D68002D40F0188130E1594B9A7843
:10405000544B1A70564D05F180062B6A13F0800FF1
:1040600003D0686A083800F02DFB0835B542F4D15A
:10407000DFF88C8100263746534AB05828B145688E
:1040800000F020FB0DB12846F9E700234E4973509C
:104090004E4AB3504E4BF05828B1456800F012FB21
:1040A0000DB12846F9E7002349497350494AB350F6
:1040B00028F8023F484BFB5C023B032B0AD8DFE8A1
:1040C00003F0020602060022434BDA5502E0012209
:1040D000414BDA5501370436102ECDD100223F4B2B
:1040E0001A7001253E4EDFF81C81314F05EB0803A5
:1040F00013F8013C06F8043B13F0080F2DD000F034
:10410000C1FA48B1A90007EB451200F1080353605A
:10411000344A47F8312007E0AB00002247F833204B
:104120002E4B1A7801321A7000F0ACFA58B1AB007D
:1041300043F0010307EBC30100F108024A601E4A85
:1041400047F8332009E0AB0043F00103002247F8B1
:104150003320224B1A7801321A70AA0042F0020171
:10416000002347F8313042F0030247F8323001357E
:104170001D4B9E42BAD116E20A4B1B781B4D2B7089
:104180000127A6E0194D00232B706B700227A0E0D9
:10419000084B9B88042B37D90F22154B1A70BDE0B2
:1041A00080200740C89AFF1F519AFF1FCA9AFF1F1D
:1041B0000080FF1FB49AFF1FC8004000E899FF1F4E
:1041C000C99AFF1FF47B0000409AFF1FEC99FF1F64
:1041D000949AFF1FA49AFF1FFC99FF1FBE9AFF1F0E
:1041E000C420074088004000D4200740C09AFF1F29
:1041F000C0200740902007409420074098200740A7
:10420000EA9CFF1FF07B00009E4A00211170517054
:104210009D4A12F8233013F0020F58D0994D012314
:104220002B70022755E0994B9B8803F07F02042AEC
:1042300002DC964A52881AB10F22934B1A706DE035
:10424000914A12F8231021F0020102F82310AAE18A
:104250008E4B9B8803F07F02042A02DC8B4A528833
:104260001AB10F22884B1A7058E0874A12F82310AF
:1042700041F0020102F8231095E1844B5E889F888B
:10428000834BA3F10C02114633F80C0CB04209D158
:1042900033F80A0CB84205D1360A032E0CBF2F782A
:1042A000178916E00D690C330C32002DEBD10F226B
:1042B000754B1A7032E0754B9A78764B1A7072E132
:1042C0000F22714B1A7029E000273D4601E00227BA
:1042D0006C4D6E4BDB889F4228BF1F46402F34BF7A
:1042E0003E46402628463146FFF72CFD3544BF1B8D
:1042F00003D13F2E00F25C8110E0402F34BF3E46D8
:10430000402628463146FFF71DFD3544BF1B01D12D
:104310003F2E03D9604B1D60604B1F8001238AF83C
:10432000003042E0594B198842F22103994212D1E0
:104330005B4BD81D12F8011B03F8011F8342F9D112
:10434000584B1B68862B02D10F22574B1A70002046
:104350000146FFF7F7FC554B45F8363025E04E4B4C
:104360001E68BEB14D4FB7F80080B8F1400F34BFA2
:104370004546402530462946FFF7E4FCC5EB0803D7
:104380009BB23B800BB9402D01D1354400E00025A4
:10439000414B1D603D4B1B88B3F5A06F05D13B4BD6
:1043A00000225A709B788BF8003001238AF8003085
:1043B000B5E03F4E9F0806EBC708D8F80420A2F1ED
:1043C0000800013DEDB213F0080F47D000F07AF974
:1043D000384B53F825304BB35A68364941F82520FD
:1043E00003F10802C8F80420334A525D032A12D8A8
:1043F000DFE802F002060A0E03212F4A51550AE0B7
:1044000002212D4A515506E005212B4A515502E063
:104410000421294A515518F0080F0CBF8822C822E0
:104420001B8842EA034346F8373078E0224B5B5D55
:10443000032B0BD8DFE803F07373020600221E4B38
:104440005A556CE001221C4B5A5568E018F0080FD1
:104450000CBF02220322184B5A5560E056F8373041
:104460001B0C22F8083C002B51D0002322F8063CFC
:1044700042F8043C114B53F825300BBB0F4B43F86B
:10448000250021E0C09AFF1FC0200740B49AFF1FFB
:10449000007C0000D89AFF1FE899FF1FBC9AFF1FFD
:1044A000F39CFF1FF49CFF1F519AFF1FC8004000A0
:1044B0000080FF1F949AFF1FFC99FF1F409AFF1F67
:1044C0003F4B53F8253058603D4B43F825003D4B9A
:1044D00033F8151032F8082C0A4423F8152000F0A0
:1044E000D1F860B100F10803C8F8043018F0080FE3
:1044F000354B364A08BF134646F837300FE00023E5
:1045000046F83730324B1A7801321A7007E018F04B
:10451000080F2D4B2D4A08BF134646F837300823A5
:104520002370FCE415F0010F22D02A4902230B70FE
:104530000022294B1A70294B24481860284C5C60D3
:1045400098602848D8601A619A610D20264B18702F
:10455000FF23264803700838037018300270244A7D
:1045600013709F22234B1A7001230B70BDE8F88F44
:1045700015F0800F05D00D221B4B1A708022403B96
:104580001A7015F0020F06D0184B1A78D2B21A70B2
:104590000222083B1A7015F0100F0ED01022164B95
:1045A0001A70BDE8F88F00200146FFF7CBFBB5E697
:1045B00028460021FFF7C6FBB0E6BDE8F88F00BF34
:1045C000EC99FF1FEC9CFF1FC800400088004000D2
:1045D000BE9AFF1F94200740509AFF1F0080FF1FC4
:1045E000009AFF1F549AFF1FC020074088200740F1
:1045F0008C200740842007408020074008B501F048
:1046000091FB00231B491A465A50C81842600833D0
:10461000882BF9D1184B1A6842F480221A60154B86
:10462000C3F30721154A1170C3F307411432117007
:104630001B0E04321370FF23343A137008321370C8
:10464000783A137001238432137000216C32117098
:104650007C3A137070220A4B1A704FF40072A3F266
:1046600041331A60102203F1C04303F5C8231A70C6
:1046700008BD00BF0080FF1F348004409C2007401D
:1046800049E400E072B60D4B1A68B2FA82F30B2BC4
:1046900002D962B6002070474FF00041D94022EAAB
:1046A000010206490A6062B6054903EBC303DB0059
:1046B000C8180022CA504260704700BF7487FF1FAD
:1046C0000084FF1F08B50F4BC31A0F4AA2FB031348
:1046D0001B090B2B14D80D4A12783AB10C4A1278E8
:1046E00012F0FF0F02D0FFF785FB08BD72B6094A32
:1046F0004FF0004121FA03F311681943116062B6CB
:1047000008BD00BF0084FF1F398EE338BE9AFF1F2B
:10471000C89AFF1F7487FF1F10B5134B1B6853B94E
:10472000124B1B7813F0FF0F18D00320FFF72EFB5E
:104730000D4B1860A8B10C4B186843885A1C0344F1
:104740001C7A03889A4206D3FFF7BCFF0022064B6F
:104750001A60204610BD4280204610BD4FF0FF3049
:1047600010BD4FF0FF3010BDD49AFF1FC89AFF1F35
:1047700008B50D4B1B6883B90C4B1B7813F0FF0F6A
:1047800008D00320FFF702FB074B186028B94FF051
:10479000FF3008BD4FF0FF3008BD034B1B685A883F
:1047A0001344187A08BD00BFD49AFF1FC89AFF1F90
:1047B000044B9888044B1B681BB11A885B88D31A7A
:1047C00018447047EC9CFF1FD49AFF1F2DE9F04757
:1047D00004460122374B1A700E46002964D0DFF8D8
:1047E000E080DFF8E0909A46334FD8F8003083BB82
:1047F00099F8003013F0FF0F06D100222D4B1A70EC
:104800004FF0FF30BDE8F0874AF2F9250420FFF7AA
:10481000DBFA07280AD801238AF80030FFF732FFB5
:10482000C8F80000A8B900238AF80030013D01D083
:104830003B7833B10122204B1A704FF0FF30BDE8B6
:10484000F08700F045FB99F8003013F0FF0FDDD141
:10485000D3E700233B70D8F800104A88C2F1400526
:10486000AE4238BF354602F108030B442A444A8061
:10487000761B3DB1254414F8012B03F8012BAC4203
:10488000F9D100E025464B883F2B07D940230B8008
:104890000420FFF7F3FA0023C8F800300522074B85
:1048A0001A700EB12C46A0E70020024B1870BDE82C
:1048B000F08700BFCB9AFF1FD09AFF1FCA9AFF1F35
:1048C000CC9AFF1FC89AFF1F00B583B002AB03F854
:1048D000010D18460121FFF779FF03B05DF804FBD5
:1048E00010B5144B1B7813F0FF0F21D00122124B8F
:1048F0001A70124B196851B10024114B1C704B886F
:104900000B800420FFF7BAFA0C4B1C600DE0FFF798
:10491000B9FE014630B10022094B1A700420FFF79E
:10492000ADFA02E00122064B1A700022024B1A7007
:1049300010BD00BFC89AFF1FCB9AFF1FCC9AFF1F64
:10494000CA9AFF1F08B50E4B1B7813F0FF0F16D144
:104950000C4B196841B14B880B800420FFF78EFA8D
:104960000022084B1A6008BDFFF78CFE014618B103
:104970000420FFF783FA08BD0122034B1A7008BD1B
:10498000CB9AFF1FCC9AFF1FCA9AFF1FF8B5184B8E
:104990001A6842F080721A60164B1A6842F00102DF
:1049A0001A6004331F68144B1C689CB1134D237AA2
:1049B0006BB12E6823681B68204698472B689B1BA9
:1049C0001B099AB2A280E1888B4288BFE2806469A9
:1049D000002CECD1094B1B68DF1B3F09BBB2084A16
:1049E0001380084A1288974284BF064A1380F8BD94
:1049F000FCED00E0001000E0DC9AFF1F041000E076
:104A0000E29AFF1FE09AFF1F03790F2B10D8094A83
:104A1000137072B6084B0279012101FA02F219886B
:104A200021EA02021A8062B6102303710023036098
:104A3000704700BF1A800040E49AFF1F08B50122AA
:104A4000024B1A60024B1B68984708BD0C7103406B
:104A5000F09AFF1F08B50122024B1A60024B5B68F7
:104A6000984708BD1C710340F09AFF1F08B501224A
:104A7000024B1A60024B9B68984708BD2C7103409B
:104A8000F09AFF1F08B50122024B1A60024BDB6847
:104A9000984708BD3C710340F09AFF1F054B1A6808
:104AA00042F400021A600022034B1A600122034BF9
:104AB0001A7070473C80044000700340EC9AFF1F5E
:104AC0000122064B1A6003F588333C331A6822F43E
:104AD00000021A600022024B1A70704700700340F7
:104AE000EC9AFF1F10B442781401164B2344436024
:104AF000154B234483600369144C44F822308368C7
:104B000000221A6043681960836803221A604378A0
:104B10004433DBB2037303F1604303F56443427B28
:104B20001A70027B53119B0003F1604303F561434C
:104B300002F01F02012101FA02F21A605DF8044B33
:104B4000704700BF0071034008710340F09AFF1FD7
:104B500070B504460D46134B1B780BB9FFF79EFF4B
:104B6000114B1B788BB1104B5B7843B10E4B9B788C
:104B700043B10D4BDB789BB903231E4607E00123AD
:104B80001E4604E002231E4601E000263346637001
:104B900020462946FFF7A6FF0120034B985570BD1C
:104BA000002070BDEC9AFF1FE89AFF1F10B58368C4
:104BB00000221A60037B5C1103F01F03012101FA3C
:104BC00003F30A4941F82430094B41785A541B78C1
:104BD00053B9074B5B783BB9054B9B7823B9044B22
:104BE000DB780BB9FFF76CFF10BD00BF80E100E080
:104BF000E89AFF1F70B504460E46154603781BB1B0
:104C0000FFF7D4FF00232370266120462946FFF7D3
:104C10009FFF10B10123237001E00023237020784F
:104C200070BD00BF10B5044603780BB1FFF7BEFF9F
:104C30000023237010BD00BF08B5FBF75BFCFBF73A
:104C40007FFE00F045F9FAE708B502F0DFF908BD8C
:104C500008B502F0E3F908BDF8B506460F4614465C
:104C600052B1002533681B68304617F8011B98477E
:104C70000544013CF6D100E000252846F8BD00BF00
:104C800000B583B0054B1B88ADF8043003685B6842
:104C900001A90222984703B05DF804FBC87B00001D
:104CA000F0B58BB0164622B903681B68C9B29847A5
:104CB0002FE0012A08BF0A2621B930228DF82520CD
:104CC000212417E021243746B1FBF6F506FB151524
:104CD000EDB22246092D94BF30353735EDB20DF1D6
:104CE000280E724402F8245CB1FBF7F111B1013CCB
:104CF000E4B2E9E733B1013CE4B20AAB23442D222C
:104D000003F8242C03685B6801A92144C4F1220242
:104D100098470BB0F0BD00BF08B50029BABF4942A3
:104D20002D2300230A22FFF7BBFF08BDFFFFFFFF73
:104D30002DE9F04F85B0814616461F469DF8388014
:104D4000104619460022002301F0ECFD28B107F1BE
:104D500000431F464FF0010A01E04FF0000AB8F18E
:104D6000000F6ED04FF0000B0022414B3EA5D5E95D
:104D700000451046194622462B4601F061FB0246CB
:104D80000B460BF1010B5FFA8BF18845F1D82AE055
:104D90003E462046294652465B4601F051FB0446FA
:104DA0000D4601F0E7FDC0B2771CFFB204AB1E4414
:104DB00000F1300306F8083C01F0DCFA02460B462D
:104DC0002046294601F088F904460D464745DFD1C3
:104DD00001E04FF00108D9F800305B68484602A9AD
:104DE000424698473CE03046394601F077F90446A0
:104DF0000D4601F0BFFD064601F0ACFA02460B4637
:104E00002046294601F068F904460D4648463146D9
:104E10000A225346FFF744FF01902E238DF80830F5
:104E2000B8F1070F34BF43460723002BD1D003F15D
:104E300001085FFA88F801264FF0000ADFF834B065
:104E4000A7E7304639460022094B01F047F901F047
:104E500091FD014648460A225346FFF721FF019083
:104E6000019805B0BDE8F08F000000A09999B93F06
:104E70000000E03F0000244008B5FFF799FC08BDA2
:104E800008B5FFF749FC08BD08B5FFF771FC08BD80
:104E900008B5FFF725FD08BD08B50846FFF714FD66
:104EA00008BD00BF08B508461146FFF78FFC08BDD6
:104EB000704700BF044B00221A714FF47A71996059
:104EC0001A73024A1A607047009BFF1FD87B0000CC
:104ED00008B50F4B1B78CBB901220D4B1A70FFF7A9
:104EE00067FC08B1FFF7E4FF00F0CEF908B100F06D
:104EF000D3FF00F045FC08B101F054F800F062FE69
:104F000008B101F0D5F80022014B1A7008BD00BFAE
:104F1000109BFF1F30B40023B0FBF2F402FB14041B
:104F20001D46092C94BF30343734E4B2CC54B0FB66
:104F3000F2F008B10133EFE70D4400226A709342AA
:104F400007DD885CCC5C8C54C8540132013B9A422A
:104F5000F7DB084630BC7047194B1A6842F4806290
:104F60001A600023174A1370174A1370174A1370F8
:104F7000174A1370174A137040F21332164B1A6017
:104F80004FF4517204331A60C0F34432134B1A7059
:104F9000C0F347125A7000F01F00987204229A70F2
:104FA0000221D9745A7588221A743C22DA70402280
:104FB0000B4B1A704FF40052A3F229331A6070475A
:104FC00034800440949BFF1F129BFF1F9C9BFF1F7C
:104FD000959BFF1F119BFF1F40A0044000A00640AF
:104FE0002DE400E0164B9B7803F0EC0300F0030285
:104FF000134310F0040F18BF43F01003104A9370CE
:1050000000F00F03042B04D11346927942F04002C2
:105010009A710B4B5A7902F0EF0210F0100F18BF83
:1050200042F01002064B5A719B7903F0EF0310F027
:10503000200F18BF43F01003014A9371704700BF5F
:1050400000A0064010B5114B1B6813F4806F1CD0F4
:105050000F4B1B7813F0FF0F06D00D4CFFF738FFF6
:10506000237813F0FF0FF9D14FF40052094B1A6067
:105070000023094AD37040F2031208490A60043140
:105080000A60074A1370074A137010BD3480044049
:10509000119BFF1F84E100E000A0064040A00440F7
:1050A000949BFF1F129BFF1F10B50446094A1378FB
:1050B00013F0FF0FFBD120460121FEF791FD2046A2
:1050C0000021FEF769FD044B53F83420034B1A60AE
:1050D00010BD00BF119BFF1FB87A0000989BFF1FF7
:1050E0002DE9F04107461F4B1B6813F4806F37D042
:1050F0001D4B1B680BB101221A701C4B1C7801342C
:10510000402C28BF00241A4D1A4EDFF86C8017E09F
:10511000FEF74AFB40280FDC337913F0800F0FD0E5
:105120002B780133402B28BF002318F80320D2B27C
:10513000F271DBB22B7003E0FF2801DDFFF7C8FE40
:105140002B78DBB29C42E3D0FFB20B4B1F55012200
:105150000A4B1A70E4B2054B1C70BC22054BDA7086
:10516000BDE8F08134800440989BFF1F9C9BFF1F8B
:10517000959BFF1F00A00640149BFF1F119BFF1F64
:105180002DE9F84F0746284B1B6813F4806F49D070
:10519000264B1B680BB101221A7007EB010B5F4510
:1051A0003DD2DFF89890224EDFF88C80DFF890A097
:1051B00099F800400134402C28BF00243578EDB226
:1051C000A54220D1BC2388F80330FEF7EDFA402831
:1051D00011DC98F8043013F0800F10D033780133CD
:1051E000402B28BF00231AF80320D2B288F80720EA
:1051F000DBB2337003E0FF2801DDFFF769FE33788F
:10520000DBB29D42E1D017F8013B0AF804300122DD
:10521000084B1A70E4B289F800405F45C8D1BC223F
:10522000054BDA70BDE8F88F34800440989BFF1F6F
:10523000959BFF1F119BFF1F00A006409C9BFF1F1B
:10524000149BFF1F10B5064B1B7813F0FF0F06D001
:10525000034CFFF73DFE237813F0FF0FF9D110BD8B
:10526000119BFF1F064B1B78DBB2064A1278D2B2A5
:1052700093422CBF3F3202F1FF32D01A704700BF79
:105280009C9BFF1F959BFF1F054B1878C0B2054BD9
:105290001B78DBB2984238BF4030C01A704700BF5D
:1052A000949BFF1F129BFF1F0A4B1A78D2B20A4B26
:1052B0001B78DBB29A4209D00133402B28BF002370
:1052C000064AD05CDBB2044A137070474FF0FF30DF
:1052D000704700BF949BFF1F129BFF1F549BFF1F33
:1052E000094B1A78D2B2094B1B78DBB29A4207D02D
:1052F0000133402B28BF0023054AD05CC0B2704761
:105300004FF0FF30704700BF949BFF1F129BFF1FA1
:10531000549BFF1F0A4B1B6813F4806F0FD0094B7F
:10532000DA7802F0CB02DA7040225A74DA7842F06E
:105330003402DA70044B1A78D2B2044B1A707047F8
:105340003480044000A00640129BFF1F949BFF1F67
:1053500070B4364B1B7913F0300F25D072B6334B37
:105360009B7D03F0FF022BB9304BDA7940225A744F
:1053700062B619E062B62E4B1978C9B22D4B1D7872
:10538000EDB22A4C2C4EE379D8B24B1C402B28BFEF
:105390000023AB421CBFF0541946531E13F0FF020A
:1053A000F1D1C9B2224B1970204BDA78D2B212F087
:1053B000800F27D01B7913F0800F23D01F4B1C7850
:1053C000E4B21F4B1B78DBB29C4210D017491D4D35
:1053D00001E0A3420BD00133402B28BF0023087902
:1053E000E85CC0B2C871087DC0B20728F1D9DBB251
:1053F00013490B700D4B1B7913F0800F02D07C21E9
:105400000A4BD97012F0400F0ED0084B1B7913F0E5
:10541000400F09D000220C4B1A700C4B1B6803B1D3
:105420001A703C22014BDA7070BC704700A0064035
:10543000949BFF1F129BFF1F549BFF1F9C9BFF1FF2
:10544000959BFF1F149BFF1F119BFF1F989BFF1F26
:10545000194B1A6842F400621A600023174A13704D
:10546000174A1370174A1370174A1370174A1370AC
:1054700040F21332164B1A604FF4517204331A6023
:10548000C0F34432134B1A70C0F347125A7000F045
:105490001F00987204229A700221D9745A758822CA
:1054A0001A743C22DA7040220B4B1A704FF40042FF
:1054B000A3F22B331A60704734800440089CFF1F0E
:1054C0009E9BFF1F109CFF1F099CFF1F9D9BFF1FA2
:1054D0000CB0044000B006402FE400E0164B9B786F
:1054E00003F0EC0300F00302134310F0040F18BFA5
:1054F00043F01003104A937000F00F03042B04D103
:105500001346927942F040029A710B4B5A7902F09D
:10551000EF0210F0100F18BF42F01002064B5A7144
:105520009B7903F0EF0310F0200F18BF43F0100336
:10553000014A9371704700BF00B0064010B5114B8F
:105540001B6813F4006F1CD00F4B1B7813F0FF0F78
:1055500006D00D4CFFF7BCFC237813F0FF0FF9D1F8
:105560004FF40042094B1A600023094AD37040F2FD
:10557000031208490A6004310A60074A1370074A97
:10558000137010BD348004409D9BFF1F84E100E038
:1055900000B006400CB00440089CFF1F9E9BFF1FFC
:1055A00010B50446094A137813F0FF0FFBD12046CB
:1055B0000121FEF715FB20460021FEF7EDFA044B12
:1055C00053F83420034B1A6010BD00BF9D9BFF1F92
:1055D000B87A00000C9CFF1F2DE9F04107461F4BD5
:1055E0001B6813F4006F37D01D4B1B680BB10122F1
:1055F0001A701C4B1C780134282C28BF00241A4D2B
:105600001A4EDFF86C8017E0FEF7CEF840280FDC6A
:10561000337913F0800F0FD02B780133282B28BF5C
:10562000002318F80320D2B2F271DBB22B7003E032
:10563000FF2801DDFFF74CFC2B78DBB29C42E3D066
:10564000FFB20B4B1F5501220A4B1A70E4B2054BF7
:105650001C70BC22054BDA70BDE8F0813480044038
:105660000C9CFF1F109CFF1F099CFF1F00B00640F1
:10567000A09BFF1F9D9BFF1F2DE9F84F0746284B5E
:105680001B6813F4006F49D0264B1B680BB1012235
:105690001A7007EB010B5F453DD2DFF89890224E60
:1056A000DFF88C80DFF890A099F800400134282CB6
:1056B00028BF00243578EDB2A54220D1BC2388F85C
:1056C0000330FEF771F8402811DC98F8043013F02D
:1056D000800F10D033780133282B28BF00231AF80D
:1056E0000320D2B288F80720DBB2337003E0FF2832
:1056F00001DDFFF7EDFB3378DBB29D42E1D017F817
:10570000013B0AF804300122084B1A70E4B289F810
:1057100000405F45C8D1BC22054BDA70BDE8F88F68
:10572000348004400C9CFF1F099CFF1F9D9BFF1FA2
:1057300000B00640109CFF1FA09BFF1F10B5064B3A
:105740001B7813F0FF0F06D0034CFFF7C1FB237843
:1057500013F0FF0FF9D110BD9D9BFF1F064B1B7867
:10576000DBB2064A1278D2B293422CBF273202F142
:10577000FF32D01A704700BF109CFF1F099CFF1F0B
:10578000054B1878C0B2054B1B78DBB2984238BF86
:105790004030C01A704700BF089CFF1F9E9BFF1F30
:1057A0000A4B1A78D2B20A4B1B78DBB29A4209D064
:1057B0000133402B28BF0023064AD05CDBB2044AE9
:1057C000137070474FF0FF30704700BF089CFF1FF9
:1057D0009E9BFF1FC89BFF1F094B1A78D2B2094B33
:1057E0001B78DBB29A4207D00133402B28BF00233D
:1057F000054AD05CC0B270474FF0FF30704700BF21
:10580000089CFF1F9E9BFF1FC89BFF1F0A4B1B6826
:1058100013F4006F0FD0094BDA7802F0CB02DA7084
:1058200040225A74DA7842F03402DA70044B1A7863
:10583000D2B2044B1A7070473480044000B0064066
:105840009E9BFF1F089CFF1F70B4364B1B7913F003
:10585000300F25D072B6334B9B7D03F0FF022BB97E
:10586000304BDA7940225A7462B619E062B62E4B98
:105870001978C9B22D4B1D78EDB22A4C2C4EE37924
:10588000D8B24B1C402B28BF0023AB421CBFF054A6
:105890001946531E13F0FF02F1D1C9B2224B197001
:1058A000204BDA78D2B212F0800F27D01B7913F098
:1058B000800F23D01F4B1C78E4B21F4B1B78DBB248
:1058C0009C4210D017491D4D01E0A3420BD001337B
:1058D000282B28BF00230879E85CC0B2C871087D76
:1058E000C0B20728F1D9DBB213490B700D4B1B79FD
:1058F00013F0800F02D07C210A4BD97012F0400FB8
:105900000ED0084B1B7913F0400F09D000220C4B2E
:105910001A700C4B1B6803B11A703C22014BDA70F1
:1059200070BC704700B00640089CFF1F9E9BFF1F85
:10593000C89BFF1F109CFF1F099CFF1FA09BFF1F00
:105940009D9BFF1F0C9CFF1F174B1A6842F480524F
:105950001A600023154A1370154A1370154A137004
:10596000154A1370154A137040F21331144A11602E
:105970004FF4517104321160C0F34431114A117077
:10598000C0F34711517000F01F00907293701374B0
:105990002C23D37040220C4B1A704FF40032A3F228
:1059A0002D331A60704700BF348004407C9CFF1F79
:1059B000129CFF1F849CFF1F7D9CFF1F119CFF1FDB
:1059C00008C0044000C0064031E400E0164B9B785C
:1059D00003F0EC0300F00302134310F0040F18BFB0
:1059E00043F01003104A937000F00F03042B04D10E
:1059F0001346927942F040029A710B4B5A7902F0A9
:105A0000EF0210F0100F18BF42F01002064B5A714F
:105A10009B7903F0EF0310F0200F18BF43F0100341
:105A2000014A9371704700BF00C0064010B5114B8A
:105A30001B6813F4805F1CD00F4B1B7813F0FF0F13
:105A400006D00D4CFFF744FA237813F0FF0FF9D17D
:105A50004FF40032094B1A600023094AD37040F218
:105A6000031208490A6004310A60074A1370074AA2
:105A7000137010BD34800440119CFF1F84E100E0CE
:105A800000C0064008C004407C9CFF1F129CFF1F02
:105A900010B50446094A137813F0FF0FFBD12046D6
:105AA0000121FEF79DF820460021FEF775F8044B12
:105AB00053F83420034B1A6010BD00BF119CFF1F28
:105AC000B87A0000809CFF1F2DE9F04107461F4B6C
:105AD0001B6813F4805F37D01D4B1B680BB101228C
